{
  "contractName": "Ehr",
  "abi": [
    {
      "inputs": [
        {
          "internalType": "uint256",
          "name": "",
          "type": "uint256"
        }
      ],
      "name": "doctorList",
      "outputs": [
        {
          "internalType": "address",
          "name": "",
          "type": "address"
        }
      ],
      "stateMutability": "view",
      "type": "function",
      "constant": true
    },
    {
      "inputs": [
        {
          "internalType": "uint256",
          "name": "",
          "type": "uint256"
        }
      ],
      "name": "patientList",
      "outputs": [
        {
          "internalType": "address",
          "name": "",
          "type": "address"
        }
      ],
      "stateMutability": "view",
      "type": "function",
      "constant": true
    },
    {
      "inputs": [
        {
          "internalType": "string",
          "name": "_name",
          "type": "string"
        },
        {
          "internalType": "uint256",
          "name": "_age",
          "type": "uint256"
        },
        {
          "internalType": "uint256",
          "name": "_designation",
          "type": "uint256"
        },
        {
          "internalType": "string",
          "name": "_hash",
          "type": "string"
        }
      ],
      "name": "add_agent",
      "outputs": [
        {
          "internalType": "string",
          "name": "",
          "type": "string"
        }
      ],
      "stateMutability": "nonpayable",
      "type": "function"
    },
    {
      "inputs": [
        {
          "internalType": "address",
          "name": "addr",
          "type": "address"
        }
      ],
      "name": "get_patient",
      "outputs": [
        {
          "internalType": "string",
          "name": "",
          "type": "string"
        },
        {
          "internalType": "uint256",
          "name": "",
          "type": "uint256"
        },
        {
          "internalType": "uint256[]",
          "name": "",
          "type": "uint256[]"
        },
        {
          "internalType": "string",
          "name": "",
          "type": "string"
        }
      ],
      "stateMutability": "view",
      "type": "function",
      "constant": true
    },
    {
      "inputs": [
        {
          "internalType": "address",
          "name": "addr",
          "type": "address"
        }
      ],
      "name": "get_doctor",
      "outputs": [
        {
          "internalType": "string",
          "name": "",
          "type": "string"
        },
        {
          "internalType": "uint256",
          "name": "",
          "type": "uint256"
        }
      ],
      "stateMutability": "view",
      "type": "function",
      "constant": true
    },
    {
      "inputs": [
        {
          "internalType": "address",
          "name": "paddr",
          "type": "address"
        },
        {
          "internalType": "address",
          "name": "daddr",
          "type": "address"
        }
      ],
      "name": "get_patient_doctor_name",
      "outputs": [
        {
          "internalType": "string",
          "name": "",
          "type": "string"
        },
        {
          "internalType": "string",
          "name": "",
          "type": "string"
        }
      ],
      "stateMutability": "view",
      "type": "function",
      "constant": true
    },
    {
      "inputs": [
        {
          "internalType": "address",
          "name": "addr",
          "type": "address"
        }
      ],
      "name": "permit_access",
      "outputs": [],
      "stateMutability": "payable",
      "type": "function",
      "payable": true
    },
    {
      "inputs": [
        {
          "internalType": "address",
          "name": "paddr",
          "type": "address"
        },
        {
          "internalType": "uint256",
          "name": "_diagnosis",
          "type": "uint256"
        },
        {
          "internalType": "string",
          "name": "_hash",
          "type": "string"
        }
      ],
      "name": "insurance_claim",
      "outputs": [],
      "stateMutability": "nonpayable",
      "type": "function"
    },
    {
      "inputs": [
        {
          "internalType": "address",
          "name": "paddr",
          "type": "address"
        },
        {
          "internalType": "address",
          "name": "daddr",
          "type": "address"
        }
      ],
      "name": "remove_patient",
      "outputs": [],
      "stateMutability": "nonpayable",
      "type": "function"
    },
    {
      "inputs": [
        {
          "internalType": "address",
          "name": "addr",
          "type": "address"
        }
      ],
      "name": "get_accessed_doctorlist_for_patient",
      "outputs": [
        {
          "internalType": "address[]",
          "name": "",
          "type": "address[]"
        }
      ],
      "stateMutability": "view",
      "type": "function",
      "constant": true
    },
    {
      "inputs": [
        {
          "internalType": "address",
          "name": "addr",
          "type": "address"
        }
      ],
      "name": "get_accessed_patientlist_for_doctor",
      "outputs": [
        {
          "internalType": "address[]",
          "name": "",
          "type": "address[]"
        }
      ],
      "stateMutability": "view",
      "type": "function",
      "constant": true
    },
    {
      "inputs": [
        {
          "internalType": "address",
          "name": "daddr",
          "type": "address"
        }
      ],
      "name": "revoke_access",
      "outputs": [],
      "stateMutability": "payable",
      "type": "function",
      "payable": true
    },
    {
      "inputs": [],
      "name": "get_patient_list",
      "outputs": [
        {
          "internalType": "address[]",
          "name": "",
          "type": "address[]"
        }
      ],
      "stateMutability": "view",
      "type": "function",
      "constant": true
    },
    {
      "inputs": [],
      "name": "get_doctor_list",
      "outputs": [
        {
          "internalType": "address[]",
          "name": "",
          "type": "address[]"
        }
      ],
      "stateMutability": "view",
      "type": "function",
      "constant": true
    },
    {
      "inputs": [
        {
          "internalType": "address",
          "name": "paddr",
          "type": "address"
        }
      ],
      "name": "get_hash",
      "outputs": [
        {
          "internalType": "string",
          "name": "",
          "type": "string"
        }
      ],
      "stateMutability": "view",
      "type": "function",
      "constant": true
    }
  ],
  "bytecode": "0x608060405234801561001057600080fd5b50612354806100206000396000f3fe6080604052600436106100e75760003560e01c80637e1519ce1161008a578063dd44176b11610059578063dd44176b14610328578063e81ac05414610365578063f02d90a414610390578063f24be9e7146103cd576100e7565b80637e1519ce14610267578063babb1d41146102a4578063bcffb7ca146102e1578063c39e9635146102fd576100e7565b80631e3fc3b8116100c65780631e3fc3b81461018f57806327b1dcee146101cd5780634042d2d4146101e957806356c98c4814610229576100e7565b80627ee3ce146100ec5780630362fe9b14610129578063127ca4b414610152575b600080fd5b3480156100f857600080fd5b50610113600480360381019061010e91906118a6565b6103f6565b6040516101209190611991565b60405180910390f35b34801561013557600080fd5b50610150600480360381019061014b91906119b3565b6104cc565b005b34801561015e57600080fd5b5061017960048036038101906101749190611a29565b610566565b6040516101869190611a65565b60405180910390f35b34801561019b57600080fd5b506101b660048036038101906101b191906119b3565b6105a5565b6040516101c4929190611b10565b60405180910390f35b6101e760048036038101906101e291906118a6565b61074f565b005b3480156101f557600080fd5b50610210600480360381019061020b91906118a6565b6107c4565b6040516102209493929190611c14565b60405180910390f35b34801561023557600080fd5b50610250600480360381019061024b91906118a6565b610a4d565b60405161025e929190611c6e565b60405180910390f35b34801561027357600080fd5b5061028e600480360381019061028991906118a6565b610b6b565b60405161029b9190611c9e565b60405180910390f35b3480156102b057600080fd5b506102cb60048036038101906102c69190611a29565b610c3f565b6040516102d89190611a65565b60405180910390f35b6102fb60048036038101906102f691906118a6565b610c7e565b005b34801561030957600080fd5b50610312610df4565b60405161031f9190611991565b60405180910390f35b34801561033457600080fd5b5061034f600480360381019061034a91906118a6565b610e82565b60405161035c9190611991565b60405180910390f35b34801561037157600080fd5b5061037a610f52565b6040516103879190611991565b60405180910390f35b34801561039c57600080fd5b506103b760048036038101906103b29190611df5565b610fe0565b6040516103c49190611c9e565b60405180910390f35b3480156103d957600080fd5b506103f460048036038101906103ef9190611e94565b61124b565b005b60606000600360008473ffffffffffffffffffffffffffffffffffffffff1673ffffffffffffffffffffffffffffffffffffffff1681526020019081526020016000206002019050808054806020026020016040519081016040528092919081815260200182805480156104bf57602002820191906000526020600020905b8160009054906101000a900473ffffffffffffffffffffffffffffffffffffffff1673ffffffffffffffffffffffffffffffffffffffff1681526020019060010190808311610475575b5050505050915050919050565b610517600460008373ffffffffffffffffffffffffffffffffffffffff1673ffffffffffffffffffffffffffffffffffffffff168152602001908152602001600020600201836114ce565b610562600360008473ffffffffffffffffffffffffffffffffffffffff1673ffffffffffffffffffffffffffffffffffffffff168152602001908152602001600020600201826114ce565b5050565b6002818154811061057657600080fd5b906000526020600020016000915054906101000a900473ffffffffffffffffffffffffffffffffffffffff1681565b606080600360008573ffffffffffffffffffffffffffffffffffffffff1673ffffffffffffffffffffffffffffffffffffffff168152602001908152602001600020600001600460008573ffffffffffffffffffffffffffffffffffffffff1673ffffffffffffffffffffffffffffffffffffffff16815260200190815260200160002060000181805461063890611f32565b80601f016020809104026020016040519081016040528092919081815260200182805461066490611f32565b80156106b15780601f10610686576101008083540402835291602001916106b1565b820191906000526020600020905b81548152906001019060200180831161069457829003601f168201915b505050505091508080546106c490611f32565b80601f01602080910402602001604051908101604052809291908181526020018280546106f090611f32565b801561073d5780601f106107125761010080835404028352916020019161073d565b820191906000526020600020905b81548152906001019060200180831161072057829003601f168201915b50505050509050915091509250929050565b61075933826104cc565b3373ffffffffffffffffffffffffffffffffffffffff166108fc671bc16d674ec800009081150290604051600060405180830381858888f193505050501580156107a7573d6000803e3d6000fd5b5060026000808282546107ba9190611f92565b9250508190555050565b60606000606080600360008673ffffffffffffffffffffffffffffffffffffffff1673ffffffffffffffffffffffffffffffffffffffff168152602001908152602001600020600001600360008773ffffffffffffffffffffffffffffffffffffffff1673ffffffffffffffffffffffffffffffffffffffff16815260200190815260200160002060010154600360008873ffffffffffffffffffffffffffffffffffffffff1673ffffffffffffffffffffffffffffffffffffffff168152602001908152602001600020600301600360008973ffffffffffffffffffffffffffffffffffffffff1673ffffffffffffffffffffffffffffffffffffffff1681526020019081526020016000206004018380546108e090611f32565b80601f016020809104026020016040519081016040528092919081815260200182805461090c90611f32565b80156109595780601f1061092e57610100808354040283529160200191610959565b820191906000526020600020905b81548152906001019060200180831161093c57829003601f168201915b50505050509350818054806020026020016040519081016040528092919081815260200182805480156109ab57602002820191906000526020600020905b815481526020019060010190808311610997575b505050505091508080546109be90611f32565b80601f01602080910402602001604051908101604052809291908181526020018280546109ea90611f32565b8015610a375780601f10610a0c57610100808354040283529160200191610a37565b820191906000526020600020905b815481529060010190602001808311610a1a57829003601f168201915b5050505050905093509350935093509193509193565b60606000600460008473ffffffffffffffffffffffffffffffffffffffff1673ffffffffffffffffffffffffffffffffffffffff168152602001908152602001600020600001600460008573ffffffffffffffffffffffffffffffffffffffff1673ffffffffffffffffffffffffffffffffffffffff16815260200190815260200160002060010154818054610ae290611f32565b80601f0160208091040260200160405190810160405280929190818152602001828054610b0e90611f32565b8015610b5b5780601f10610b3057610100808354040283529160200191610b5b565b820191906000526020600020905b815481529060010190602001808311610b3e57829003601f168201915b5050505050915091509150915091565b6060600360008373ffffffffffffffffffffffffffffffffffffffff1673ffffffffffffffffffffffffffffffffffffffff1681526020019081526020016000206004018054610bba90611f32565b80601f0160208091040260200160405190810160405280929190818152602001828054610be690611f32565b8015610c335780601f10610c0857610100808354040283529160200191610c33565b820191906000526020600020905b815481529060010190602001808311610c1657829003601f168201915b50505050509050919050565b60018181548110610c4f57600080fd5b906000526020600020016000915054906101000a900473ffffffffffffffffffffffffffffffffffffffff1681565b671bc16d674ec800003414610c9257600080fd5b6002600080828254610ca49190611fc6565b92505081905550600460008273ffffffffffffffffffffffffffffffffffffffff1673ffffffffffffffffffffffffffffffffffffffff168152602001908152602001600020600201339080600181540180825580915050600190039060005260206000200160009091909190916101000a81548173ffffffffffffffffffffffffffffffffffffffff021916908373ffffffffffffffffffffffffffffffffffffffff160217905550600360003373ffffffffffffffffffffffffffffffffffffffff1673ffffffffffffffffffffffffffffffffffffffff168152602001908152602001600020600201819080600181540180825580915050600190039060005260206000200160009091909190916101000a81548173ffffffffffffffffffffffffffffffffffffffff021916908373ffffffffffffffffffffffffffffffffffffffff16021790555050565b60606002805480602002602001604051908101604052809291908181526020018280548015610e7857602002820191906000526020600020905b8160009054906101000a900473ffffffffffffffffffffffffffffffffffffffff1673ffffffffffffffffffffffffffffffffffffffff1681526020019060010190808311610e2e575b5050505050905090565b6060600460008373ffffffffffffffffffffffffffffffffffffffff1673ffffffffffffffffffffffffffffffffffffffff168152602001908152602001600020600201805480602002602001604051908101604052809291908181526020018280548015610f4657602002820191906000526020600020905b8160009054906101000a900473ffffffffffffffffffffffffffffffffffffffff1673ffffffffffffffffffffffffffffffffffffffff1681526020019060010190808311610efc575b50505050509050919050565b60606001805480602002602001604051908101604052809291908181526020018280548015610fd657602002820191906000526020600020905b8160009054906101000a900473ffffffffffffffffffffffffffffffffffffffff1673ffffffffffffffffffffffffffffffffffffffff1681526020019060010190808311610f8c575b5050505050905090565b606060003390506000840361113357610ff7611711565b8681600001819052508581602001818152505083816080018190525080600360003373ffffffffffffffffffffffffffffffffffffffff1673ffffffffffffffffffffffffffffffffffffffff168152602001908152602001600020600082015181600001908161106891906121a6565b5060208201518160010155604082015181600201908051906020019061108f929190611740565b5060608201518160030190805190602001906110ac9291906117ca565b5060808201518160040190816110c291906121a6565b509050506001829080600181540180825580915050600190039060005260206000200160009091909190916101000a81548173ffffffffffffffffffffffffffffffffffffffff021916908373ffffffffffffffffffffffffffffffffffffffff1602179055508692505050611243565b6001840361123e5785600460008373ffffffffffffffffffffffffffffffffffffffff1673ffffffffffffffffffffffffffffffffffffffff168152602001908152602001600020600001908161118a91906121a6565b5084600460008373ffffffffffffffffffffffffffffffffffffffff1673ffffffffffffffffffffffffffffffffffffffff168152602001908152602001600020600101819055506002819080600181540180825580915050600190039060005260206000200160009091909190916101000a81548173ffffffffffffffffffffffffffffffffffffffff021916908373ffffffffffffffffffffffffffffffffffffffff16021790555085915050611243565b600080fd5b949350505050565b6000805b600460003373ffffffffffffffffffffffffffffffffffffffff1673ffffffffffffffffffffffffffffffffffffffff168152602001908152602001600020600201805490508110156113cd578473ffffffffffffffffffffffffffffffffffffffff16600460003373ffffffffffffffffffffffffffffffffffffffff1673ffffffffffffffffffffffffffffffffffffffff168152602001908152602001600020600201828154811061130757611306612278565b5b9060005260206000200160009054906101000a900473ffffffffffffffffffffffffffffffffffffffff1673ffffffffffffffffffffffffffffffffffffffff16036113ba573373ffffffffffffffffffffffffffffffffffffffff166108fc671bc16d674ec800009081150290604051600060405180830381858888f1935050505015801561139b573d6000803e3d6000fd5b5060026000808282546113ae9190611f92565b92505081905550600191505b80806113c5906122a7565b91505061124f565b5060011515811515036113f3576113e484836116bd565b6113ee84336104cc565b6113f8565b600080fd5b6000805b600360008773ffffffffffffffffffffffffffffffffffffffff1673ffffffffffffffffffffffffffffffffffffffff168152602001908152602001600020600301805490508110156114c65784600360008873ffffffffffffffffffffffffffffffffffffffff1673ffffffffffffffffffffffffffffffffffffffff168152602001908152602001600020600301828154811061149e5761149d612278565b5b9060005260206000200154036114b357600191505b80806114be906122a7565b9150506113fc565b505050505050565b60008060005b848054905081101561156b578373ffffffffffffffffffffffffffffffffffffffff1685828154811061150a57611509612278565b5b9060005260206000200160009054906101000a900473ffffffffffffffffffffffffffffffffffffffff1673ffffffffffffffffffffffffffffffffffffffff160361155857600192508091505b8080611563906122a7565b9150506114d4565b508161157657600080fd5b60018480549050036115c75783818154811061159557611594612278565b5b9060005260206000200160006101000a81549073ffffffffffffffffffffffffffffffffffffffff02191690556116b7565b83600185805490506115d99190611f92565b815481106115ea576115e9612278565b5b9060005260206000200160009054906101000a900473ffffffffffffffffffffffffffffffffffffffff1684828154811061162857611627612278565b5b9060005260206000200160006101000a81548173ffffffffffffffffffffffffffffffffffffffff021916908373ffffffffffffffffffffffffffffffffffffffff16021790555083805480611681576116806122ef565b5b6001900381819060005260206000200160006101000a81549073ffffffffffffffffffffffffffffffffffffffff021916905590555b50505050565b80600360008473ffffffffffffffffffffffffffffffffffffffff1673ffffffffffffffffffffffffffffffffffffffff168152602001908152602001600020600401908161170c91906121a6565b505050565b6040518060a0016040528060608152602001600081526020016060815260200160608152602001606081525090565b8280548282559060005260206000209081019282156117b9579160200282015b828111156117b85782518260006101000a81548173ffffffffffffffffffffffffffffffffffffffff021916908373ffffffffffffffffffffffffffffffffffffffff16021790555091602001919060010190611760565b5b5090506117c69190611817565b5090565b828054828255906000526020600020908101928215611806579160200282015b828111156118055782518255916020019190600101906117ea565b5b5090506118139190611817565b5090565b5b80821115611830576000816000905550600101611818565b5090565b6000604051905090565b600080fd5b600080fd5b600073ffffffffffffffffffffffffffffffffffffffff82169050919050565b600061187382611848565b9050919050565b61188381611868565b811461188e57600080fd5b50565b6000813590506118a08161187a565b92915050565b6000602082840312156118bc576118bb61183e565b5b60006118ca84828501611891565b91505092915050565b600081519050919050565b600082825260208201905092915050565b6000819050602082019050919050565b61190881611868565b82525050565b600061191a83836118ff565b60208301905092915050565b6000602082019050919050565b600061193e826118d3565b61194881856118de565b9350611953836118ef565b8060005b8381101561198457815161196b888261190e565b975061197683611926565b925050600181019050611957565b5085935050505092915050565b600060208201905081810360008301526119ab8184611933565b905092915050565b600080604083850312156119ca576119c961183e565b5b60006119d885828601611891565b92505060206119e985828601611891565b9150509250929050565b6000819050919050565b611a06816119f3565b8114611a1157600080fd5b50565b600081359050611a23816119fd565b92915050565b600060208284031215611a3f57611a3e61183e565b5b6000611a4d84828501611a14565b91505092915050565b611a5f81611868565b82525050565b6000602082019050611a7a6000830184611a56565b92915050565b600081519050919050565b600082825260208201905092915050565b60005b83811015611aba578082015181840152602081019050611a9f565b60008484015250505050565b6000601f19601f8301169050919050565b6000611ae282611a80565b611aec8185611a8b565b9350611afc818560208601611a9c565b611b0581611ac6565b840191505092915050565b60006040820190508181036000830152611b2a8185611ad7565b90508181036020830152611b3e8184611ad7565b90509392505050565b611b50816119f3565b82525050565b600081519050919050565b600082825260208201905092915050565b6000819050602082019050919050565b611b8b816119f3565b82525050565b6000611b9d8383611b82565b60208301905092915050565b6000602082019050919050565b6000611bc182611b56565b611bcb8185611b61565b9350611bd683611b72565b8060005b83811015611c07578151611bee8882611b91565b9750611bf983611ba9565b925050600181019050611bda565b5085935050505092915050565b60006080820190508181036000830152611c2e8187611ad7565b9050611c3d6020830186611b47565b8181036040830152611c4f8185611bb6565b90508181036060830152611c638184611ad7565b905095945050505050565b60006040820190508181036000830152611c888185611ad7565b9050611c976020830184611b47565b9392505050565b60006020820190508181036000830152611cb88184611ad7565b905092915050565b600080fd5b600080fd5b7f4e487b7100000000000000000000000000000000000000000000000000000000600052604160045260246000fd5b611d0282611ac6565b810181811067ffffffffffffffff82111715611d2157611d20611cca565b5b80604052505050565b6000611d34611834565b9050611d408282611cf9565b919050565b600067ffffffffffffffff821115611d6057611d5f611cca565b5b611d6982611ac6565b9050602081019050919050565b82818337600083830152505050565b6000611d98611d9384611d45565b611d2a565b905082815260208101848484011115611db457611db3611cc5565b5b611dbf848285611d76565b509392505050565b600082601f830112611ddc57611ddb611cc0565b5b8135611dec848260208601611d85565b91505092915050565b60008060008060808587031215611e0f57611e0e61183e565b5b600085013567ffffffffffffffff811115611e2d57611e2c611843565b5b611e3987828801611dc7565b9450506020611e4a87828801611a14565b9350506040611e5b87828801611a14565b925050606085013567ffffffffffffffff811115611e7c57611e7b611843565b5b611e8887828801611dc7565b91505092959194509250565b600080600060608486031215611ead57611eac61183e565b5b6000611ebb86828701611891565b9350506020611ecc86828701611a14565b925050604084013567ffffffffffffffff811115611eed57611eec611843565b5b611ef986828701611dc7565b9150509250925092565b7f4e487b7100000000000000000000000000000000000000000000000000000000600052602260045260246000fd5b60006002820490506001821680611f4a57607f821691505b602082108103611f5d57611f5c611f03565b5b50919050565b7f4e487b7100000000000000000000000000000000000000000000000000000000600052601160045260246000fd5b6000611f9d826119f3565b9150611fa8836119f3565b9250828203905081811115611fc057611fbf611f63565b5b92915050565b6000611fd1826119f3565b9150611fdc836119f3565b9250828201905080821115611ff457611ff3611f63565b5b92915050565b60008190508160005260206000209050919050565b60006020601f8301049050919050565b600082821b905092915050565b60006008830261205c7fffffffffffffffffffffffffffffffffffffffffffffffffffffffffffffffff8261201f565b612066868361201f565b95508019841693508086168417925050509392505050565b6000819050919050565b60006120a361209e612099846119f3565b61207e565b6119f3565b9050919050565b6000819050919050565b6120bd83612088565b6120d16120c9826120aa565b84845461202c565b825550505050565b600090565b6120e66120d9565b6120f18184846120b4565b505050565b5b818110156121155761210a6000826120de565b6001810190506120f7565b5050565b601f82111561215a5761212b81611ffa565b6121348461200f565b81016020851015612143578190505b61215761214f8561200f565b8301826120f6565b50505b505050565b600082821c905092915050565b600061217d6000198460080261215f565b1980831691505092915050565b6000612196838361216c565b9150826002028217905092915050565b6121af82611a80565b67ffffffffffffffff8111156121c8576121c7611cca565b5b6121d28254611f32565b6121dd828285612119565b600060209050601f83116001811461221057600084156121fe578287015190505b612208858261218a565b865550612270565b601f19841661221e86611ffa565b60005b8281101561224657848901518255600182019150602085019450602081019050612221565b86831015612263578489015161225f601f89168261216c565b8355505b6001600288020188555050505b505050505050565b7f4e487b7100000000000000000000000000000000000000000000000000000000600052603260045260246000fd5b60006122b2826119f3565b91507fffffffffffffffffffffffffffffffffffffffffffffffffffffffffffffffff82036122e4576122e3611f63565b5b600182019050919050565b7f4e487b7100000000000000000000000000000000000000000000000000000000600052603160045260246000fdfea264697066735822122009b1660e94f792e48e250309489e10f53efd0d3d537cb2f4c9c343c403b3cccf64736f6c63430008130033",
  "immutableReferences": {},
  "source": "// SPDX-License-Identifier: MIT\r\npragma solidity ^0.8;\r\n\r\ncontract Ehr {\r\n    struct patient {\r\n        string name;\r\n        uint256 age;\r\n        address[] doctorAccessList;\r\n        uint256[] diagnosis;\r\n        string record;\r\n    }\r\n\r\n    struct doctor {\r\n        string name;\r\n        uint256 age;\r\n        address[] patientAccessList;\r\n    }\r\n    uint256 creditPool;\r\n\r\n    address[] public patientList;\r\n    address[] public doctorList;\r\n\r\n    mapping(address => patient) patientInfo;\r\n    mapping(address => doctor) doctorInfo;\r\n    mapping(address => string) patientRecords;\r\n\r\n    function add_agent(\r\n        string memory _name,\r\n        uint256 _age,\r\n        uint256 _designation,\r\n        string memory _hash\r\n    ) public returns (string memory) {\r\n        address addr = msg.sender;\r\n\r\n        if (_designation == 0) {\r\n            patient memory p;\r\n            p.name = _name;\r\n            p.age = _age;\r\n            p.record = _hash;\r\n            patientInfo[msg.sender] = p;\r\n            patientList.push(addr);\r\n            return _name;\r\n        } else if (_designation == 1) {\r\n            doctorInfo[addr].name = _name;\r\n            doctorInfo[addr].age = _age;\r\n            doctorList.push(addr);\r\n            return _name;\r\n        } else {\r\n            revert();\r\n        }\r\n    }\r\n\r\n    function get_patient(address addr)\r\n        public\r\n        view\r\n        returns (\r\n            string memory,\r\n            uint256,\r\n            uint256[] memory,\r\n            string memory\r\n        )\r\n    {\r\n        return (\r\n            patientInfo[addr].name,\r\n            patientInfo[addr].age,\r\n            patientInfo[addr].diagnosis,\r\n            patientInfo[addr].record\r\n        );\r\n    }\r\n\r\n    function get_doctor(address addr)\r\n        public\r\n        view\r\n        returns (string memory, uint256)\r\n    {\r\n        return (doctorInfo[addr].name, doctorInfo[addr].age);\r\n    }\r\n\r\n    function get_patient_doctor_name(address paddr, address daddr)\r\n        public\r\n        view\r\n        returns (string memory, string memory)\r\n    {\r\n        return (patientInfo[paddr].name, doctorInfo[daddr].name);\r\n    }\r\n\r\n    function permit_access(address addr) public payable {\r\n        require(msg.value == 2 ether);\r\n\r\n        creditPool += 2;\r\n\r\n        doctorInfo[addr].patientAccessList.push(msg.sender);\r\n        patientInfo[msg.sender].doctorAccessList.push(addr);\r\n    }\r\n\r\n    function insurance_claim(address paddr, uint _diagnosis, string memory  _hash) public {\r\n        bool patientFound = false;\r\n        for(uint i = 0;i<doctorInfo[msg.sender].patientAccessList.length;i++){\r\n            if(doctorInfo[msg.sender].patientAccessList[i]==paddr){\r\n                payable(msg.sender).transfer(2 ether);\r\n                creditPool -= 2;\r\n                patientFound = true;\r\n\r\n            }\r\n\r\n        }\r\n        if(patientFound==true){\r\n            set_hash(paddr, _hash);\r\n            remove_patient(paddr, msg.sender);\r\n        }else {\r\n            revert();\r\n        }\r\n\r\n        bool DiagnosisFound = false;\r\n        for(uint j = 0; j < patientInfo[paddr].diagnosis.length;j++){\r\n            if(patientInfo[paddr].diagnosis[j] == _diagnosis)DiagnosisFound = true;\r\n        }\r\n    }\r\n\r\n    function remove_element_in_array(address[] storage Array, address addr)\r\n        internal\r\n    {\r\n        bool check = false;\r\n        uint256 del_index = 0;\r\n        for (uint256 i = 0; i < Array.length; i++) {\r\n            if (Array[i] == addr) {\r\n                check = true;\r\n                del_index = i;\r\n            }\r\n        }\r\n        if (!check) revert();\r\n        else {\r\n            if (Array.length == 1) {\r\n                delete Array[del_index];\r\n            } else {\r\n                Array[del_index] = Array[Array.length - 1];\r\n                Array.pop();\r\n            }\r\n        }\r\n    }\r\n\r\n    function remove_patient(address paddr, address daddr) public {\r\n        remove_element_in_array(doctorInfo[daddr].patientAccessList, paddr);\r\n        remove_element_in_array(patientInfo[paddr].doctorAccessList, daddr);\r\n    }\r\n\r\n    function get_accessed_doctorlist_for_patient(address addr)\r\n        public\r\n        view\r\n        returns (address[] memory)\r\n    {\r\n        address[] storage doctoraddr = patientInfo[addr].doctorAccessList;\r\n        return doctoraddr;\r\n    }\r\n\r\n    function get_accessed_patientlist_for_doctor(address addr)\r\n        public\r\n        view\r\n        returns (address[] memory)\r\n    {\r\n        return doctorInfo[addr].patientAccessList;\r\n    }\r\n\r\n        function revoke_access(address daddr) public payable{\r\n        remove_patient(msg.sender,daddr);\r\n        payable(msg.sender).transfer(2 ether);\r\n        creditPool -= 2;\r\n    }\r\n\r\n    function get_patient_list() public view returns(address[] memory ){\r\n        return patientList;\r\n    }\r\n\r\n    function get_doctor_list() public view returns(address[] memory ){\r\n        return doctorList;\r\n    }\r\n\r\n    function get_hash(address paddr) public view returns(string memory ){\r\n        return patientInfo[paddr].record;\r\n    }\r\n\r\n    function set_hash(address paddr, string memory _hash) internal {\r\n        patientInfo[paddr].record = _hash;\r\n    }\r\n\r\n}\r\n",
  "sourcePath": "C:\\Users\\91992\\Desktop\\finalDapp\\contracts\\Ehr.sol",
  "compiler": {
    "name": "solc",
    "version": "0.8.19+commit.7dd6d404.Emscripten.clang"
  },
  "schemaVersion": "3.4.13",
  "updatedAt": "2023-03-15T08:28:58.573Z",
  "networkType": "ethereum",
  "devdoc": {
    "kind": "dev",
    "methods": {},
    "version": 1
  },
  "userdoc": {
    "kind": "user",
    "methods": {},
    "version": 1
  }
}